{
  "_format": "hh-sol-artifact-1",
  "contractName": "Lottery",
  "sourceName": "contracts/Lottery.sol",
  "abi": [
    {
      "inputs": [
        {
          "internalType": "address",
          "name": "vrfCoordinatorV2",
          "type": "address"
        },
        {
          "internalType": "uint256",
          "name": "entranceFee",
          "type": "uint256"
        },
        {
          "internalType": "bytes32",
          "name": "gaslane",
          "type": "bytes32"
        },
        {
          "internalType": "uint64",
          "name": "subscriptionID",
          "type": "uint64"
        },
        {
          "internalType": "uint32",
          "name": "callbackGasLimit",
          "type": "uint32"
        },
        {
          "internalType": "uint256",
          "name": "interval",
          "type": "uint256"
        }
      ],
      "stateMutability": "nonpayable",
      "type": "constructor"
    },
    {
      "inputs": [],
      "name": "Er_NotEnoughETH_ENTERED",
      "type": "error"
    },
    {
      "inputs": [],
      "name": "LotteryNOTOPEN",
      "type": "error"
    },
    {
      "inputs": [
        {
          "internalType": "address",
          "name": "have",
          "type": "address"
        },
        {
          "internalType": "address",
          "name": "want",
          "type": "address"
        }
      ],
      "name": "OnlyCoordinatorCanFulfill",
      "type": "error"
    },
    {
      "inputs": [],
      "name": "TransferFailed",
      "type": "error"
    },
    {
      "inputs": [
        {
          "internalType": "uint256",
          "name": "currentBalance",
          "type": "uint256"
        },
        {
          "internalType": "uint256",
          "name": "numCustomers",
          "type": "uint256"
        },
        {
          "internalType": "uint256",
          "name": "lotteryState",
          "type": "uint256"
        }
      ],
      "name": "UPKEEPNOTREQUIRED",
      "type": "error"
    },
    {
      "anonymous": false,
      "inputs": [
        {
          "indexed": true,
          "internalType": "address",
          "name": "customer",
          "type": "address"
        }
      ],
      "name": "LotteryEnter",
      "type": "event"
    },
    {
      "anonymous": false,
      "inputs": [
        {
          "indexed": true,
          "internalType": "uint256",
          "name": "requestID",
          "type": "uint256"
        }
      ],
      "name": "RequestLotteryWinner",
      "type": "event"
    },
    {
      "anonymous": false,
      "inputs": [
        {
          "indexed": true,
          "internalType": "address",
          "name": "winner",
          "type": "address"
        }
      ],
      "name": "WinnerPicked",
      "type": "event"
    },
    {
      "inputs": [
        {
          "internalType": "bytes",
          "name": "",
          "type": "bytes"
        }
      ],
      "name": "checkUpkeep",
      "outputs": [
        {
          "internalType": "bool",
          "name": "upkeepRequired",
          "type": "bool"
        },
        {
          "internalType": "bytes",
          "name": "",
          "type": "bytes"
        }
      ],
      "stateMutability": "nonpayable",
      "type": "function"
    },
    {
      "inputs": [],
      "name": "enterLottery",
      "outputs": [],
      "stateMutability": "payable",
      "type": "function"
    },
    {
      "inputs": [
        {
          "internalType": "uint256",
          "name": "index",
          "type": "uint256"
        }
      ],
      "name": "getCustomer",
      "outputs": [
        {
          "internalType": "address",
          "name": "",
          "type": "address"
        }
      ],
      "stateMutability": "view",
      "type": "function"
    },
    {
      "inputs": [],
      "name": "getEntranceFee",
      "outputs": [
        {
          "internalType": "uint256",
          "name": "",
          "type": "uint256"
        }
      ],
      "stateMutability": "view",
      "type": "function"
    },
    {
      "inputs": [],
      "name": "getInterval",
      "outputs": [
        {
          "internalType": "uint256",
          "name": "",
          "type": "uint256"
        }
      ],
      "stateMutability": "view",
      "type": "function"
    },
    {
      "inputs": [],
      "name": "getLatestTimeStamp",
      "outputs": [
        {
          "internalType": "uint256",
          "name": "",
          "type": "uint256"
        }
      ],
      "stateMutability": "view",
      "type": "function"
    },
    {
      "inputs": [],
      "name": "getLotteryState",
      "outputs": [
        {
          "internalType": "enum Lottery.LotteryState",
          "name": "",
          "type": "uint8"
        }
      ],
      "stateMutability": "view",
      "type": "function"
    },
    {
      "inputs": [],
      "name": "getNumWords",
      "outputs": [
        {
          "internalType": "uint256",
          "name": "",
          "type": "uint256"
        }
      ],
      "stateMutability": "nonpayable",
      "type": "function"
    },
    {
      "inputs": [],
      "name": "getNumberOfPlayers",
      "outputs": [
        {
          "internalType": "uint256",
          "name": "",
          "type": "uint256"
        }
      ],
      "stateMutability": "view",
      "type": "function"
    },
    {
      "inputs": [],
      "name": "getRecentWinner",
      "outputs": [
        {
          "internalType": "address",
          "name": "",
          "type": "address"
        }
      ],
      "stateMutability": "view",
      "type": "function"
    },
    {
      "inputs": [],
      "name": "getRequestConfirmations",
      "outputs": [
        {
          "internalType": "uint256",
          "name": "",
          "type": "uint256"
        }
      ],
      "stateMutability": "pure",
      "type": "function"
    },
    {
      "inputs": [
        {
          "internalType": "bytes",
          "name": "",
          "type": "bytes"
        }
      ],
      "name": "performUpkeep",
      "outputs": [],
      "stateMutability": "nonpayable",
      "type": "function"
    },
    {
      "inputs": [
        {
          "internalType": "uint256",
          "name": "requestId",
          "type": "uint256"
        },
        {
          "internalType": "uint256[]",
          "name": "randomWords",
          "type": "uint256[]"
        }
      ],
      "name": "rawFulfillRandomWords",
      "outputs": [],
      "stateMutability": "nonpayable",
      "type": "function"
    }
  ],
  "bytecode": "0x6101606040523480156200001257600080fd5b5060405162001809380380620018098339818101604052810190620000389190620002a0565b858073ffffffffffffffffffffffffffffffffffffffff1660808173ffffffffffffffffffffffffffffffffffffffff1660601b81525050508460a081815250508573ffffffffffffffffffffffffffffffffffffffff1660c08173ffffffffffffffffffffffffffffffffffffffff1660601b815250508360e081815250508267ffffffffffffffff166101008167ffffffffffffffff1660c01b815250508163ffffffff166101208163ffffffff1660e01b815250506000600160146101000a81548160ff021916908360018111156200011957620001186200033c565b5b0217905550426002819055508061014081815250505050505050506200036b565b600080fd5b600073ffffffffffffffffffffffffffffffffffffffff82169050919050565b60006200016c826200013f565b9050919050565b6200017e816200015f565b81146200018a57600080fd5b50565b6000815190506200019e8162000173565b92915050565b6000819050919050565b620001b981620001a4565b8114620001c557600080fd5b50565b600081519050620001d981620001ae565b92915050565b6000819050919050565b620001f481620001df565b81146200020057600080fd5b50565b6000815190506200021481620001e9565b92915050565b600067ffffffffffffffff82169050919050565b62000239816200021a565b81146200024557600080fd5b50565b60008151905062000259816200022e565b92915050565b600063ffffffff82169050919050565b6200027a816200025f565b81146200028657600080fd5b50565b6000815190506200029a816200026f565b92915050565b60008060008060008060c08789031215620002c057620002bf6200013a565b5b6000620002d089828a016200018d565b9650506020620002e389828a01620001c8565b9550506040620002f689828a0162000203565b94505060606200030989828a0162000248565b93505060806200031c89828a0162000289565b92505060a06200032f89828a01620001c8565b9150509295509295509295565b7f4e487b7100000000000000000000000000000000000000000000000000000000600052602160045260246000fd5b60805160601c60a05160c05160601c60e0516101005160c01c6101205160e01c61014051611429620003e06000396000818161066501526106d3015260006104fd015260006104da015260006104b90152600061047d015260006106f90152600081816102fd015261035101526114296000f3fe6080604052600436106100c25760003560e01c80635f1b0fd81161007f57806391ad27b41161005957806391ad27b414610259578063c1af578514610284578063eb876f271461028e578063fd6673f5146102cb576100c2565b80635f1b0fd8146101c55780636b68c03c146101f05780636e04ff0d1461021b576100c2565b806309bc33a7146100c75780631fe543e3146100f2578063320229eb1461011b5780634585e33b14610146578063473f1ddc1461016f57806353a2c19a1461019a575b600080fd5b3480156100d357600080fd5b506100dc6102f6565b6040516100e99190610baa565b60405180910390f35b3480156100fe57600080fd5b5061011960048036038101906101149190610d5e565b6102fb565b005b34801561012757600080fd5b506101306103bb565b60405161013d9190610baa565b60405180910390f35b34801561015257600080fd5b5061016d60048036038101906101689190610e15565b6103c5565b005b34801561017b57600080fd5b506101846105c5565b6040516101919190610ea3565b60405180910390f35b3480156101a657600080fd5b506101af6105ef565b6040516101bc9190610baa565b60405180910390f35b3480156101d157600080fd5b506101da6105fe565b6040516101e79190610baa565b60405180910390f35b3480156101fc57600080fd5b5061020561060b565b6040516102129190610f35565b60405180910390f35b34801561022757600080fd5b50610242600480360381019061023d9190611005565b610622565b6040516102509291906110f1565b60405180910390f35b34801561026557600080fd5b5061026e6106cf565b60405161027b9190610baa565b60405180910390f35b61028c6106f7565b005b34801561029a57600080fd5b506102b560048036038101906102b09190611121565b610866565b6040516102c29190610ea3565b60405180910390f35b3480156102d757600080fd5b506102e06108ad565b6040516102ed9190610baa565b60405180910390f35b600090565b7f000000000000000000000000000000000000000000000000000000000000000073ffffffffffffffffffffffffffffffffffffffff163373ffffffffffffffffffffffffffffffffffffffff16146103ad57337f00000000000000000000000000000000000000000000000000000000000000006040517f1cf993f40000000000000000000000000000000000000000000000000000000081526004016103a492919061114e565b60405180910390fd5b6103b782826108b9565b5050565b6000600254905090565b60006103df60405180602001604052806000815250610622565b5090508061044e5747600080549050600160149054906101000a900460ff1660018111156104105761040f610ebe565b5b6040517fdedce2f600000000000000000000000000000000000000000000000000000000815260040161044593929190611177565b60405180910390fd5b6000600160146101000a81548160ff0219169083600181111561047457610473610ebe565b5b021790555060007f000000000000000000000000000000000000000000000000000000000000000073ffffffffffffffffffffffffffffffffffffffff16635d3b1d307f00000000000000000000000000000000000000000000000000000000000000007f000000000000000000000000000000000000000000000000000000000000000060037f000000000000000000000000000000000000000000000000000000000000000060016040518663ffffffff1660e01b815260040161053e959493929190611226565b602060405180830381600087803b15801561055857600080fd5b505af115801561056c573d6000803e3d6000fd5b505050506040513d601f19601f82011682018060405250810190610590919061128e565b9050807feddaba8a57dcfd3a637ac76edea7af81443028e0bd6e6cb23bd210a4a85ba85660405160405180910390a250505050565b6000600160009054906101000a900473ffffffffffffffffffffffffffffffffffffffff16905090565b6000600163ffffffff16905090565b6000600361ffff16905090565b6000600160149054906101000a900460ff16905090565b600060606000600160149054906101000a900460ff16600181111561064a57610649610ebe565b5b6000600181111561065e5761065d610ebe565b5b14905060007f00000000000000000000000000000000000000000000000000000000000000006002544261069291906112ea565b119050600080600080549050119050600080471190508380156106b25750825b80156106bb5750815b80156106c45750805b955050505050915091565b60007f0000000000000000000000000000000000000000000000000000000000000000905090565b7f0000000000000000000000000000000000000000000000000000000000000000341015610751576040517fe3fb549500000000000000000000000000000000000000000000000000000000815260040160405180910390fd5b6000600181111561076557610764610ebe565b5b600160149054906101000a900460ff16600181111561078757610786610ebe565b5b146107be576040517f5c306e7800000000000000000000000000000000000000000000000000000000815260040160405180910390fd5b6000339080600181540180825580915050600190039060005260206000200160009091909190916101000a81548173ffffffffffffffffffffffffffffffffffffffff021916908373ffffffffffffffffffffffffffffffffffffffff1602179055503373ffffffffffffffffffffffffffffffffffffffff167f1d64fb5ba9f2548c5b98468d58f25b87b9e866afee0122e92d9fe722bf85076c60405160405180910390a2565b600080828154811061087b5761087a61131e565b5b9060005260206000200160009054906101000a900473ffffffffffffffffffffffffffffffffffffffff169050919050565b60008080549050905090565b60008080549050826000815181106108d4576108d361131e565b5b60200260200101516108e6919061137c565b905060008082815481106108fd576108fc61131e565b5b9060005260206000200160009054906101000a900473ffffffffffffffffffffffffffffffffffffffff1690506000600160146101000a81548160ff021916908360018111156109505761094f610ebe565b5b0217905550600067ffffffffffffffff8111156109705761096f610c1b565b5b60405190808252806020026020018201604052801561099e5781602001602082028036833780820191505090505b50600090805190602001906109b4929190610aea565b504260028190555080600160006101000a81548173ffffffffffffffffffffffffffffffffffffffff021916908373ffffffffffffffffffffffffffffffffffffffff16021790555060008173ffffffffffffffffffffffffffffffffffffffff1647604051610a23906113de565b60006040518083038185875af1925050503d8060008114610a60576040519150601f19603f3d011682016040523d82523d6000602084013e610a65565b606091505b5050905080610aa0576040517f90b8ec1800000000000000000000000000000000000000000000000000000000815260040160405180910390fd5b8173ffffffffffffffffffffffffffffffffffffffff167f5b690ec4a06fe979403046eaeea5b3ce38524683c3001f662c8b5a829632f7df60405160405180910390a25050505050565b828054828255906000526020600020908101928215610b63579160200282015b82811115610b625782518260006101000a81548173ffffffffffffffffffffffffffffffffffffffff021916908373ffffffffffffffffffffffffffffffffffffffff16021790555091602001919060010190610b0a565b5b509050610b709190610b74565b5090565b5b80821115610b8d576000816000905550600101610b75565b5090565b6000819050919050565b610ba481610b91565b82525050565b6000602082019050610bbf6000830184610b9b565b92915050565b6000604051905090565b600080fd5b600080fd5b610be281610b91565b8114610bed57600080fd5b50565b600081359050610bff81610bd9565b92915050565b600080fd5b6000601f19601f8301169050919050565b7f4e487b7100000000000000000000000000000000000000000000000000000000600052604160045260246000fd5b610c5382610c0a565b810181811067ffffffffffffffff82111715610c7257610c71610c1b565b5b80604052505050565b6000610c85610bc5565b9050610c918282610c4a565b919050565b600067ffffffffffffffff821115610cb157610cb0610c1b565b5b602082029050602081019050919050565b600080fd5b6000610cda610cd584610c96565b610c7b565b90508083825260208201905060208402830185811115610cfd57610cfc610cc2565b5b835b81811015610d265780610d128882610bf0565b845260208401935050602081019050610cff565b5050509392505050565b600082601f830112610d4557610d44610c05565b5b8135610d55848260208601610cc7565b91505092915050565b60008060408385031215610d7557610d74610bcf565b5b6000610d8385828601610bf0565b925050602083013567ffffffffffffffff811115610da457610da3610bd4565b5b610db085828601610d30565b9150509250929050565b600080fd5b60008083601f840112610dd557610dd4610c05565b5b8235905067ffffffffffffffff811115610df257610df1610dba565b5b602083019150836001820283011115610e0e57610e0d610cc2565b5b9250929050565b60008060208385031215610e2c57610e2b610bcf565b5b600083013567ffffffffffffffff811115610e4a57610e49610bd4565b5b610e5685828601610dbf565b92509250509250929050565b600073ffffffffffffffffffffffffffffffffffffffff82169050919050565b6000610e8d82610e62565b9050919050565b610e9d81610e82565b82525050565b6000602082019050610eb86000830184610e94565b92915050565b7f4e487b7100000000000000000000000000000000000000000000000000000000600052602160045260246000fd5b60028110610efe57610efd610ebe565b5b50565b6000819050610f0f82610eed565b919050565b6000610f1f82610f01565b9050919050565b610f2f81610f14565b82525050565b6000602082019050610f4a6000830184610f26565b92915050565b600080fd5b600067ffffffffffffffff821115610f7057610f6f610c1b565b5b610f7982610c0a565b9050602081019050919050565b82818337600083830152505050565b6000610fa8610fa384610f55565b610c7b565b905082815260208101848484011115610fc457610fc3610f50565b5b610fcf848285610f86565b509392505050565b600082601f830112610fec57610feb610c05565b5b8135610ffc848260208601610f95565b91505092915050565b60006020828403121561101b5761101a610bcf565b5b600082013567ffffffffffffffff81111561103957611038610bd4565b5b61104584828501610fd7565b91505092915050565b60008115159050919050565b6110638161104e565b82525050565b600081519050919050565b600082825260208201905092915050565b60005b838110156110a3578082015181840152602081019050611088565b838111156110b2576000848401525b50505050565b60006110c382611069565b6110cd8185611074565b93506110dd818560208601611085565b6110e681610c0a565b840191505092915050565b6000604082019050611106600083018561105a565b818103602083015261111881846110b8565b90509392505050565b60006020828403121561113757611136610bcf565b5b600061114584828501610bf0565b91505092915050565b60006040820190506111636000830185610e94565b6111706020830184610e94565b9392505050565b600060608201905061118c6000830186610b9b565b6111996020830185610b9b565b6111a66040830184610b9b565b949350505050565b6000819050919050565b6111c1816111ae565b82525050565b600067ffffffffffffffff82169050919050565b6111e4816111c7565b82525050565b600061ffff82169050919050565b611201816111ea565b82525050565b600063ffffffff82169050919050565b61122081611207565b82525050565b600060a08201905061123b60008301886111b8565b61124860208301876111db565b61125560408301866111f8565b6112626060830185611217565b61126f6080830184611217565b9695505050505050565b60008151905061128881610bd9565b92915050565b6000602082840312156112a4576112a3610bcf565b5b60006112b284828501611279565b91505092915050565b7f4e487b7100000000000000000000000000000000000000000000000000000000600052601160045260246000fd5b60006112f582610b91565b915061130083610b91565b925082821015611313576113126112bb565b5b828203905092915050565b7f4e487b7100000000000000000000000000000000000000000000000000000000600052603260045260246000fd5b7f4e487b7100000000000000000000000000000000000000000000000000000000600052601260045260246000fd5b600061138782610b91565b915061139283610b91565b9250826113a2576113a161134d565b5b828206905092915050565b600081905092915050565b50565b60006113c86000836113ad565b91506113d3826113b8565b600082019050919050565b60006113e9826113bb565b915081905091905056fea2646970667358221220a56ff05f24d789ada736407107b0eab1241ab5c87f5b70c4447c30000ac7faa264736f6c63430008080033",
  "linkReferences": {},
  "deployedLinkReferences": {}
}